:020000040800F2
:1000000000060020E1020008E3020008E302000805
:10001000E3020008E3020008E3020008E30200082C
:10002000E3020008E3020008E3020008ED2E0008E6
:10003000E3020008E3020008E3020008E30200080C
:10004000E3020008E3020008E3020008E3020008FC
:10005000E3020008E3020008594400088544000850
:10006000B1440008DD4400080945000845110008B6
:100070006D11000899110008C5110008F111000860
:100080001912000845120008E3020008E302000804
:10009000E3020008E3020008E30200083545000817
:1000A000E3020008E3020008E3020008E30200089C
:1000B000E3020008E3020008E3020008E30200088C
:1000C000E3020008E3020008E3020008E30200087C
:1000D000E30200080D460008E3020008E3020008FE
:1000E00099450008E3020008E3020008E302000863
:1000F000E3020008E3020008E302000871120008AE
:10010000E3020008E302000821460008E3020008B9
:10011000E3020008E3020008E3020008E30200082B
:100120009D120008C5120008F11200081D130008F6
:1001300049130008E3020008E3020008E302000894
:10014000E3020008E3020008E3020008E3020008FB
:10015000711300089D130008C9130008E30200088A
:10016000E3020008E3020008E3020008E3020008DB
:10017000E3020008D93A0008E3020008E30200089D
:10018000E3020008E3020008E3020008E3020008BB
:10019000E3020008E3020008E3020008E3020008AB
:1001A000E3020008E3020008E3020008E30200089B
:1001B000E3020008E3020008E3020008E30200088B
:1001C000E3020008E3020008E3020008E30200087B
:1001D000E3020008C53A0008E3020008E302000851
:1001E000E3020008E3020008E3020008E30200085B
:1001F000E3020008E3020008E3020008E30200084B
:10020000E3020008E3020008E3020008E30200083A
:10021000E3020008E3020008E3020008E30200082A
:10022000E3020008E3020008E3020008E30200081A
:10023000E3020008E3020008E3020008E30200080A
:10024000E3020008E3020008E3020008E3020008FA
:10025000E3020008E3020008E3020008E3020008EA
:10026000E3020008E3020008E3020008E3020008DA
:10027000E3020008E3020008E3020008E3020008CA
:10028000E3020008E3020008E3020008E3020008BA
:10029000E3020008E3020008E3020008E3020008AA
:1002A000E3020008E3020008E3020008E30200089A
:1002B000E3020008E3020008E3020008E30200088A
:1002C000E3020008E3020008E3020008E30200087A
:1002D000E3020008E3020008E3020008E30200086A
:1002E00002E000F000F8FEE772B6374880F30888B5
:1002F000364880F3098836483649086040F20000E5
:10030000CCF200004EF63471CEF200010860BFF36B
:100310004F8FBFF36F8F40F20000C0F2F0004EF637
:100320008851CEF200010860BFF34F8FBFF36F8F8B
:100330004FF00000E1EE100A4EF63C71CEF20001E3
:100340000860062080F31488BFF36F8F02F030FE40
:1003500003F03EFE4FF055301F491B4A91423CBF0F
:1003600041F8040BFAE71D49184A91423CBF41F895
:10037000040BFAE71A491B4A1B4B9A423EBF51F83D
:10038000040B42F8040BF8E700201849184A914280
:100390003CBF41F8040BFAE702F048FE03F09CFE74
:1003A000144C154DAC4203DA54F8041B8847F9E7A6
:1003B00000F042F8114C124DAC4203DA54F8041B21
:1003C0008847F9E702F030BE000600200022002036
:1003D0000000000808ED00E00000002000060020FA
:1003E000404B0008002200206422002068220020E8
:1003F00044480020E0020008E0020008E002000893
:10040000E00200082DE9F04F2DED108AC1F80CD064
:10041000D0F80CD0BDEC108ABDE8F08F002383F338
:1004200011882846A047002002F0E6F8FEE702F017
:1004300075F800DFFEE7000038B500F045FC00F07D
:1004400015FE02F013FD054602F046FD0446C0B954
:100450000E4B9D4217D001339D4241F2883512BFA9
:10046000044600250124002002F00AFD0CB100F032
:1004700075F800F099FD284600F01EF900F06EF8BE
:10048000F9E70025EFE70546EDE700BF010007B0FB
:1004900008B500F0E5FBA0F120035842584108BD23
:1004A00007B541F21203022101A8ADF8043000F0B3
:1004B000F5FB03B05DF804FB38B5302383F31188F6
:1004C000174803680BB102F063F90023154A4FF493
:1004D0007A71134802F052F9002383F31188124C09
:1004E000236813B12368013B2360636813B1636819
:1004F000013B63600D4D2B7833B963687BB90220F3
:1005000000F0B4FC322363602B78032B07D16368BF
:100510002BB9022000F0AAFC4FF47A73636038BD57
:1005200068220020B90400088823002080220020CF
:10053000084B187003280CD8DFE800F00805020803
:10054000022000F085BC022000F072BC024B0022A9
:100550005A6070478022002088230020F8B5504B55
:10056000504A1C461968013100F0998004339342C7
:10057000F8D162684C4B9A4240F291804B4B9B6899
:1005800003F1006303F500339A4280F08880002075
:1005900000F0C0FB0220FFF7CBFF454B0021D3F852
:1005A000E820C3F8E810D3F81021C3F81011D3F8ED
:1005B0001021D3F8EC20C3F8EC10D3F81421C3F8C1
:1005C0001411D3F81421D3F8F020C3F8F010D3F8A5
:1005D0001821C3F81811D3F81821D3F8802042F05D
:1005E0000062C3F88020D3F8802022F00062C3F8B4
:1005F0008020D3F88020D3F8802042F00072C3F826
:100600008020D3F8802022F00072C3F88020D3F835
:10061000803072B64FF0E023C3F8084DD4E90004EF
:10062000BFF34F8FBFF36F8F224AC2F88410BFF31E
:100630004F8F536923F480335361BFF34F8FD2F848
:10064000803043F6E076C3F3C905C3F34E335B0154
:1006500003EA060C29464CEA81770139C2F8747224
:10066000F9D2203B13F1200FF2D1BFF34F8FBFF32C
:100670006F8FBFF34F8FBFF36F8F536923F4003336
:1006800053610023C2F85032BFF34F8FBFF36F8F17
:10069000302383F31188854680F308882047F8BD0E
:1006A0000000020820000208FFFF010800220020CD
:1006B0000044025800ED00E02DE9F04F93B0B44B38
:1006C0002022FF2100900AA89D6800F017FCB14A83
:1006D0001378A3B90121B04811700360302383F36C
:1006E000118803680BB102F053F80023AB4A4FF4B2
:1006F0007A71A94802F042F8002383F31188009B25
:1007000013B1A74B009A1A60A64A1378032B03D0A3
:1007100000231370A24A53604FF0000A009CD34696
:100720005646D146012000F093FB24B19C4B1B6838
:10073000002B00F02682002000F092FA0390039B29
:10074000002BF2DB012000F073FB039B213B1F2BEE
:10075000E8D801A252F823F0D907000801080008E0
:100760009508000825070008250700082507000848
:1007700027090008F70A0008110A0008730A000890
:100780009B0A0008C10A000825070008D30A0008D0
:1007900025070008450B0008790800082507000810
:1007A000890B0008E50700087908000825070008FC
:1007B000730A000825070008250700082507000818
:1007C0002507000825070008250700082507000859
:1007D00025070008950800080220FFF759FE0028A9
:1007E00040F0F981009B022105A8BAF1000F08BF73
:1007F0001C4641F21233ADF8143000F04FFA91E785
:100800004FF47A7000F02CFA071EEBDB0220FFF7A2
:100810003FFE0028E6D0013F052F00F2DE81DFE831
:1008200007F0030A0D1013360523042105A80593CC
:1008300000F034FA17E004215548F9E704215A483A
:10084000F6E704215948F3E74FF01C08404608F149
:10085000040800F061FA0421059005A800F01EFAD2
:10086000B8F12C0FF2D101204FF0000900FA07F780
:1008700047EA0B0B5FFA8BFB00F08CFB26B10BF009
:100880000B030B2B08BF0024FFF70AFE4AE70421E5
:100890004748CDE7002EA5D00BF00B030B2BA1D1C1
:1008A0000220FFF7F5FD074600289BD00120002617
:1008B00000F030FA0220FFF73BFE1FFA86F84046B0
:1008C00000F038FA0446B0B1039940460136A1F170
:1008D00040025142514100F03DFA0028EDD1BA46A4
:1008E000044641F21213022105A83E46ADF8143029
:1008F00000F0D4F916E725460120FFF719FE244B36
:100900009B68AB4207D9284600F006FA013040F058
:1009100067810435F3E70025224BBA463E461D7039
:100920001F4B5D60A8E7002E3FF45CAF0BF00B039C
:100930000B2B7FF457AF0220FFF7FAFD322000F0B7
:100940008FF9B0F10008FFF64DAF18F003077FF400
:1009500049AF0F4A08EB0503926893423FF642AF56
:10096000B8F5807F3FF73EAF124BB845019323DDCA
:100970004FF47A7000F074F90390039A002AFFF69E
:1009800031AF039A0137019B03F8012BEDE700BF5C
:10099000002200208423002068220020B9040008DF
:1009A000882300208022002004220020082200202A
:1009B0000C22002084220020C820FFF769FD074692
:1009C00000283FF40FAF1F2D11D8C5F120020AAB4C
:1009D00025F0030084494245184428BF424601924D
:1009E00000F066FA019AFF217F4800F087FA4FEA8B
:1009F000A803C8F387027C492846019300F086FAD1
:100A0000064600283FF46DAF019B05EB830533E7F5
:100A10000220FFF73DFD00283FF4E4AE00F0B8F9F6
:100A200000283FF4DFAE0027B846704B9B68BB42FE
:100A300018D91F2F11D80A9B01330ED027F00303BA
:100A400012AA134453F8203C05934046042205A9FA
:100A5000043700F061FB8046E7E7384600F05CF9B8
:100A60000590F2E7CDF81480042105A800F016F9EE
:100A700002E70023642104A8049300F005F900288C
:100A80007FF4B0AE0220FFF703FD00283FF4AAAECA
:100A9000049800F073F90590E6E70023642104A8A8
:100AA000049300F0F1F800287FF49CAE0220FFF7D9
:100AB000EFFC00283FF496AE049800F061F9EAE7F5
:100AC0000220FFF7E5FC00283FF48CAE00F070F93F
:100AD000E1E70220FFF7DCFC00283FF483AE05A924
:100AE000142000F06BF907460421049004A800F0DC
:100AF000D5F83946B9E7322000F0B2F8071EFFF604
:100B000071AEBB077FF46EAE384A07EB09039268FB
:100B100093423FF667AE0220FFF7BAFC00283FF48D
:100B200061AE27F003074F44B9453FF4A5AE4846F0
:100B300009F1040900F0F0F80421059005A800F07F
:100B4000ADF8F1E74FF47A70FFF7A2FC00283FF40C
:100B500049AE00F01DF9002844D00A9B01330BD0A8
:100B600008220AA9002000F0D1F900283AD020225A
:100B7000FF210AA800F0C2F9FFF792FC1C4801F01F
:100B800041FD13B0BDE8F08F002E3FF42BAE0BF00B
:100B90000B030B2B7FF426AE0023642105A80593DD
:100BA00000F072F8074600287FF41CAE0220FFF721
:100BB0006FFC804600283FF415AEFFF771FC41F250
:100BC000883001F01FFD059800F02EFA46463C469D
:100BD00000F0E0F9A6E506464EE64FF0000901E612
:100BE000BA467EE637467CE68422002000220020BA
:100BF000A08601002DE9F84F4FF47A7306460D46A2
:100C0000002402FB03F7DFF85080DFF8509098F9DA
:100C100000305FFA84FA5A1C01D0A34212D159F86D
:100C200024002A4631460368D3F820B03B46D84713
:100C3000854207D1074B012083F800A0BDE8F88F5B
:100C40000124E4E7002CFBD04FF4FA7001F0DAFC49
:100C50000020F3E7D42300201022002014220020DB
:100C6000002307B5024601210DF107008DF807307A
:100C7000FFF7C0FF20B19DF8070003B05DF804FB4B
:100C80004FF0FF30F9E700000A46042108B5FFF7EE
:100C9000B1FF80F00100C0B2404208BD074B0A46D8
:100CA00030B41978064B53F821400146236820469A
:100CB000DD69044BAC4630BC604700BFD423002044
:100CC00014220020A086010070B5104C0025104EA3
:100CD00001F0B4FF20803068238883420CD80025BF
:100CE0002088013801F0A6FF23880544013BB5F5B3
:100CF000802F2380F4D370BD01F09CFF336805443E
:100D00000133B5F5003F3360E5D3E8E7D623002093
:100D10009023002002F060B800F1006000F5003080
:100D20000068704700F10060920000F5003001F0AB
:100D3000E1BF0000054B1A68054B1B889B1A8342D4
:100D400002D9104401F076BF0020704790230020A4
:100D5000D623002038B50446074D29B12868204421
:100D6000BDE8384001F07EBF2868204401F068FFEC
:100D70000028F3D038BD00BF90230020002070472A
:100D800000F1FF5000F58F10D0F800087047000008
:100D9000064991F8243033B100230822086A81F80B
:100DA0002430FFF7BFBF0120704700BF942300200D
:100DB000014B1868704700BF0010005C194B0138E8
:100DC0000322084470B51D68174BC5F30B042D0CA6
:100DD0001E88A6420BD15C680A46013C824213463B
:100DE0000FD214F9016F4EB102F8016BF6E7013A28
:100DF00003F10803ECD181420B4602D22C2203F806
:100E0000012B0424094A1688AE4204D1984284BFBB
:100E1000967803F8016B013C02F10402F3D1581AF1
:100E200070BD00BF0010005C1C2200202447000899
:100E3000022804D1054B4FF400229A617047012823
:100E4000FCD1024B4FF48012F7E700BF00100258AC
:100E5000022803D1044B08229A6170470128FCD173
:100E6000014B1022F8E700BF00100258022805D1FC
:100E7000064A536983F00803536170470128FCD187
:100E8000024A536983F01003F6E700BF00100258CE
:100E900070B504464FF47A764CB1412C254628BFF4
:100EA000412506FB05F0641B01F0ACFBF4E770BDC7
:100EB000002310B5934203D0CC5CC4540133F9E74E
:100EC00010BD0000013810B510F9013F3BB191F998
:100ED00000409C4203D11AB10131013AF4E71AB142
:100EE00091F90020981A10BD1046FCE7034602460F
:100EF000D01A12F9011B0029FAD1704702440346A7
:100F0000934202D003F8011BFAE770472DE9F8433A
:100F10001F4D14460746884695F8242052BBDFF83B
:100F200070909CB395F824302BB92022FF214846BD
:100F30002F62FFF7E3FF95F824004146C0F1080255
:100F400005EB8000A24228BF2246D6B29200FFF7EE
:100F5000AFFF95F82430A41B17441E449044E4B21C
:100F6000F6B2082E85F82460DBD1FFF711FF0028C8
:100F7000D7D108E02B6A03EB82038342CFD0FFF77F
:100F800007FF0028CBD10020BDE8F8830120FBE754
:100F900094230020024B1A78024B1A70704700BF4E
:100FA000D42300201022002038B51A4C1A4D2046B8
:100FB00000F07CFE2946204600F0A4FE2D684FF488
:100FC0007A70D5F89020D2F8043843F00203C2F8C2
:100FD0000438FFF75DFF1149284600F0A1FFD5F85E
:100FE00090200F4DD2F80438286823F002030D49F1
:100FF000A042C2F804384FF4E1330B6001D000F096
:10100000B3FD6868A04204D00649BDE8384000F04E
:10101000ABBD38BD382B00201C490008244900080E
:1010200014220020BC2300200C4B70B50C4D04464C
:101030001E780C4B55F826209A420DD00A4B002101
:1010400018221846FFF75AFF0460014655F826009B
:10105000BDE8704000F088BD70BD00BFD423002003
:1010600014220020382B0020BC230020F0B5A1B0B2
:1010700071B600230120002480261A46194600F08C
:101080004BFA4FF4D067214A3D25136923BBD2F8B0
:1010900010310BBB036804F1006199600368C3F869
:1010A0000CD003685E6003681F6001680B6843F042
:1010B00001030B6001680B6823F01E030B600168DD
:1010C0000B68DB07FCD4037B8034416805FA03F32B
:1010D000B4F5001F0B60D8D100F05EFAB4F5001F24
:1010E00011D000240A4E0B4D012001F075FE33880B
:1010F000A34205D928682044013401F0B3FDF6E786
:10110000002001F069FE61B621B0F0BD0020005260
:10111000D62300209023002030B50A44084D914288
:101120000DD011F8013B5840082340F30004013B67
:101130002C4013F0FF0384EA5000F6D1EFE730BDF6
:101140002083B8ED08B5074B074A196801F03D0147
:10115000996053680BB190689847BDE8084001F06A
:10116000FDBE00BF00000240D823002008B5084B98
:101170001968890901F03D018A019A60054AD3681E
:101180000BB110699847BDE8084001F0E7BE00BF09
:1011900000000240D823002008B5084B1968090C4C
:1011A00001F03D010A049A60054A53690BB1906948
:1011B0009847BDE8084001F0D1BE00BF00000240E2
:1011C000D823002008B5084B1968890D01F03D01AE
:1011D0008A059A60054AD3690BB1106A9847BDE841
:1011E000084001F0BBBE00BF00000240D823002031
:1011F00008B5074B074A596801F03D01D960536AA9
:101200000BB1906A9847BDE8084001F0A7BE00BF47
:1012100000000240D823002008B5084B596889090E
:1012200001F03D018A01DA60054AD36A0BB1106B07
:101230009847BDE8084001F091BE00BF00000240A1
:10124000D823002008B5084B5968090C01F03D016E
:101250000A04DA60054A536B0BB1906B9847BDE8FE
:10126000084001F07BBE00BF00000240D8230020F0
:1012700008B5084B5968890D01F03D018A05DA600F
:10128000054AD36B0BB1106C9847BDE8084001F0DC
:1012900065BE00BF00000240D823002008B5074B00
:1012A000074A196801F03D019960536C0BB1906CCD
:1012B0009847BDE8084001F051BE00BF000402405D
:1012C000D823002008B5084B1968890901F03D01B1
:1012D0008A019A60054AD36C0BB1106D9847BDE83E
:1012E000084001F03BBE00BF00040240D8230020AC
:1012F00008B5084B1968090C01F03D010A049A6011
:10130000054A536D0BB1906D9847BDE8084001F058
:1013100025BE00BF00040240D823002008B5084BBA
:101320001968890D01F03D018A059A60054AD36D5F
:101330000BB1106E9847BDE8084001F00FBE00BF2A
:1013400000040240D823002008B5074B074A59681B
:1013500001F03D01D960536E0BB1906E9847BDE826
:10136000084001F0FBBD00BF00040240D82300206C
:1013700008B5084B5968890901F03D018A01DA6016
:10138000054AD36E0BB1106F9847BDE8084001F0D5
:10139000E5BD00BF00040240D823002008B5084B7B
:1013A0005968090C01F03D010A04DA60054A536FDF
:1013B0000BB1906F9847BDE8084001F0CFBD00BF6A
:1013C00000040240D823002008B5084B5968890D55
:1013D00001F03D018A05DA60054AD36F13B1D2F8F6
:1013E00080009847BDE8084001F0B8BD0004024005
:1013F000D823002000230C4910B51A460B4C0B6073
:1014000054F82300026001EB430004334260402B98
:10141000F6D1074A4FF0FF339360D360C2F8083427
:10142000C2F80C3410BD00BFD82300203447000898
:10143000000002400F28F8B510D9102810D011284C
:1014400011D0122808D10F240720DFF8C8E00126A8
:10145000DEF80050A04208D9002653E00446F4E725
:101460000F240020F1E70724FBE706FA00F73D42CE
:101470004AD1264C4FEA001C3D4304EB00160EEB0C
:10148000C000CEF80050C0E90123FBB273B1204880
:10149000D0F8D83043F00103C0F8D830D0F800318C
:1014A00043F00103C0F80031D0F8003117F47F4F4A
:1014B0000ED01748D0F8D83043F00203C0F8D83027
:1014C000D0F8003143F00203C0F80031D0F8003109
:1014D00054F80C00036823F01F030360056815F03F
:1014E0000105FBD104EB0C033D2493F80CC05F68AD
:1014F00004FA0CF43C6021240560446112B1987B2D
:1015000000F066F93046F8BD0130A3E73447000823
:1015100000440258D823002010B5302484F31188E9
:10152000FFF788FF002383F3118810BD10B5044630
:10153000807B00F063F901231549627B03FA02F214
:101540000B6823EA0203DAB20B6072B9114AD2F8CF
:10155000D81021F00101C2F8D810D2F8001121F002
:101560000101C2F80011D2F8002113F47F4F0ED10F
:10157000084BD3F8D82022F00202C3F8D820D3F8C1
:10158000002122F00202C3F80021D3F8003110BD7F
:10159000D82300200044025808B5302383F3118873
:1015A000FFF7C4FF002383F3118808BD0268436876
:1015B0001143016003B1184770470000024A1368E5
:1015C00043F0C003136070470010014013B50E4C88
:1015D000204600F0BDFA04F1140000234FF400721D
:1015E0000A49009400F07AF9094B4FF40072094956
:1015F00004F13800009400F0F3F9074A074BC4E9FE
:10160000172302B010BD00BF5C240020C8240020B6
:10161000BD150008C82600200010014000E1F505B6
:10162000037C30B5244C002918BF0C46012B11D186
:10163000224B98420ED1224BD3F8F02042F01002F8
:10164000C3F8F020D3F8182142F01002C3F8182193
:10165000D3F818312268036EC16D03EB5203846620
:10166000B3FBF2F36268150442BF23F0070503F0F1
:10167000070343EA4503CB60A36843F040034B6094
:10168000E36843F001038B6042F4967343F0010377
:101690000B604FF0FF330B62510505D512F010229D
:1016A00005D0B2F1805F04D080F8643030BD7F2374
:1016B000FAE73F23F8E700BF344800085C24002025
:1016C000004402582DE9F047C66D05463768F469B5
:1016D000210734621AD014F0080118BF4FF480714A
:1016E000E20748BF41F02001A3074FF0300348BF95
:1016F00041F04001600748BF41F0800183F3118849
:10170000281DFFF753FF002383F31188E2050AD554
:10171000302383F311884FF48061281DFFF746FFC3
:10172000002383F311884FF030094FF0000A14F0C2
:10173000200838D13B0616D54FF0300905F1380A9C
:10174000200610D589F31188504600F07DF9002855
:1017500036DA0821281DFFF729FF27F080033360C0
:10176000002383F31188790614D5620612D530233D
:1017700083F31188D5E913239A4208D12B6C33B136
:1017800027F040071021281DFFF710FF37600023C6
:1017900083F31188E30618D5AA6E1369ABB15069BB
:1017A000BDE8F047184789F31188736A284695F811
:1017B0006410194000F0E6F98AF31188F469B6E77D
:1017C000B06288F31188F469BAE7BDE8F0870000D9
:1017D000090100F16043012203F56143C9B283F8B6
:1017E000001300F01F039A4043099B0003F160437C
:1017F00003F56143C3F880211A60704700F01F03AE
:1018000001229A40430900F160409B0000F56140CD
:1018100003F1604303F56143C3F88020C3F88021DE
:10182000002380F800337047F8B5154682680446F7
:101830000B46AA4200D28568A1692669761AB5428C
:101840000BD218462A46FFF733FBA3692B44A3614A
:101850002846A3685B1BA360F8BD0CD9AF1B1846D4
:101860003246FFF725FB3A46E1683044FFF720FB9C
:10187000E3683B44EBE718462A46FFF719FBE368A9
:10188000E5E7000083689342F7B50446154600D2A9
:101890008568D4E90460361AB5420BD22A46FFF7B0
:1018A00007FB63692B4463612846A3685B1BA36045
:1018B00003B0F0BD0DD93246AF1B0191FFF7F8FA26
:1018C00001993A46E0683144FFF7F2FAE3683B4495
:1018D000E9E72A46FFF7ECFAE368E4E710B50A44C3
:1018E0000024C361029B8460C16002610362C0E99D
:1018F0000000C0E9051110BD08B5D0E905329342DA
:1019000001D1826882B98268013282605A1C4261C8
:1019100019700021D0E904329A4224BFC3684361A0
:1019200000F08CFE002008BD4FF0FF30FBE7000008
:1019300070B5302304460E4683F31188A568A5B11F
:10194000A368A269013BA360531CA36115782269B7
:10195000934224BFE368A361E3690BB12046984733
:10196000002383F31188284607E03146204600F023
:1019700055FE0028E2DA85F3118870BD2DE9F74F96
:1019800004460E4617469846D0F81C904FF0300A91
:101990008AF311884FF0000B154665B12A4631468F
:1019A0002046FFF741FF034660B94146204600F05C
:1019B00035FE0028F1D0002383F31188781B03B093
:1019C000BDE8F08FB9F1000F03D001902046C84761
:1019D000019B8BF31188ED1A1E448AF31188DCE712
:1019E000C160C361009B82600362C0E905111144BC
:1019F000C0E9000001617047F8B504460D4616467F
:101A0000302383F31188A768A7B1A368013BA360C3
:101A100063695A1C62611D70D4E904329A4224BF82
:101A2000E3686361E3690BB120469847002080F3C7
:101A3000118807E03146204600F0F0FD0028E2DA88
:101A400087F31188F8BD0000D0E9052310B59A424C
:101A500001D182687AB982680021013282605A1C01
:101A600082611C7803699A4224BFC368836100F0D5
:101A7000E5FD204610BD4FF0FF30FBE72DE9F74FA5
:101A800004460E4617469846D0F81C904FF0300A90
:101A90008AF311884FF0000B154665B12A4631468E
:101AA0002046FFF7EFFE034660B94146204600F0AE
:101AB000B5FD0028F1D0002383F31188781B03B013
:101AC000BDE8F08FB9F1000F03D001902046C84760
:101AD000019B8BF31188ED1A1E448AF31188DCE711
:101AE000026843681143016003B118477047000062
:101AF0001430FFF743BF00004FF0FF331430FFF7FF
:101B00003DBF00003830FFF7B9BF00004FF0FF3392
:101B10003830FFF7B3BF00001430FFF709BF0000F3
:101B20004FF0FF311430FFF703BF00003830FFF7EC
:101B300063BF00004FF0FF323830FFF75DBF000099
:101B4000012914BF6FF0130000207047FFF73EBD5E
:101B5000044B036000234360C0E902330123037494
:101B6000704700BF4C48000810B53023044683F38B
:101B70001188FFF755FD02230020237480F311889C
:101B800010BD000038B5C36904460D461BB90421D9
:101B90000844FFF7A5FF294604F11400FFF7ACFE47
:101BA000002806DA201D4FF40061BDE83840FFF739
:101BB00097BF38BD026843681143016003B11847FD
:101BC0007047000013B5406B00F58054D4F8A4387A
:101BD0001A681178042914D1017C022911D11979CC
:101BE000012312898B4013420BD101A94C3002F022
:101BF000A5F8D4F8A4480246019B2179206800F09A
:101C0000DFF902B010BD0000143002F027B8000068
:101C10004FF0FF33143002F021B800004C3002F0D6
:101C2000F9B800004FF0FF334C3002F0F3B8000079
:101C3000143001F0F5BF00004FF0FF31143001F017
:101C4000EFBF00004C3002F0C5B800004FF0FF328B
:101C50004C3002F0BFB800000020704710B500F50E
:101C60008054D4F8A4381A681178042917D1017C5B
:101C7000022914D15979012352898B4013420ED184
:101C8000143001F087FF024648B1D4F8A4484FF45D
:101C9000407361792068BDE8104000F07FB910BD45
:101CA000406BFFF7DBBF0000704700007FB5124BB1
:101CB00001250426044603600023057400F1840214
:101CC00043602946C0E902330C4B02901430019363
:101CD0004FF44073009601F039FF094B04F694422B
:101CE000294604F14C000294CDE900634FF440739F
:101CF00002F000F804B070BD74480008A11C000890
:101D0000C51B00080A68302383F311880B790B3355
:101D100042F823004B79133342F823008B7913B137
:101D20000B3342F8230000F58053C3F8A4180223B4
:101D30000374002080F311887047000038B5037FDA
:101D4000044613B190F85430ABB90125201D02218F
:101D5000FFF730FF04F114006FF00101257700F068
:101D600079FC04F14C0084F854506FF00101BDE897
:101D7000384000F06FBC38BD10B501210446043076
:101D8000FFF718FF0023237784F8543010BD0000BC
:101D900038B504460025143001F0F0FE04F14C0083
:101DA000257701F0BFFF201D84F854500121FFF773
:101DB00001FF2046BDE83840FFF750BF90F8803063
:101DC00003F06003202B06D190F881200023212A04
:101DD00003D81F2A06D800207047222AFBD1C0E969
:101DE0001D3303E0034A426707228267C36701206D
:101DF000704700BF3422002037B500F58055D5F874
:101E0000A4381A68117804291AD1017C022917D143
:101E10001979012312898B40134211D100F14C042E
:101E2000204602F03FF858B101A9204601F086FF94
:101E3000D5F8A4480246019B2179206800F0C0F83B
:101E400003B030BD01F10B03F0B550F8236085B04D
:101E500004460D46FEB1302383F3118804EB850759
:101E6000301D0821FFF7A6FEFB6806F14C005B69F8
:101E70001B681BB1019001F06FFF019803A901F0ED
:101E80005DFF024648B1039B2946204600F098F8C2
:101E9000002383F3118805B0F0BDFB685A6912680E
:101EA000002AF5D01B8A013B1340F1D104F18002D6
:101EB000EAE70000133138B550F82140ECB1302387
:101EC00083F3118804F58053D3F8A428136852795A
:101ED00003EB8203DB689B695D6845B104216018F0
:101EE000FFF768FE294604F1140001F05DFE20466C
:101EF000FFF7B4FE002383F3118838BD704700005C
:101F000001F02AB901234022002110B5044600F84F
:101F1000303BFEF7F3FF0023C4E9013310BD00009E
:101F200010B53023044683F3118824224160002138
:101F30000C30FEF7E3FF204601F030F902230020C9
:101F4000237080F3118810BD70B500EB8103054646
:101F500050690E461446DA6018B110220021FEF7CF
:101F6000CDFFA06918B110220021FEF7C7FF31464E
:101F70002846BDE8704001F017BA000083682022AF
:101F8000002103F0011310B5044683601030FEF702
:101F9000B5FF2046BDE8104001F092BAF0B401252B
:101FA00000EB810447898D40E4683D43A469458185
:101FB00023600023A2606360F0BC01F0AFBA0000B0
:101FC000F0B4012500EB810407898D40E4683D43AE
:101FD0006469058123600023A2606360F0BC01F0A6
:101FE00025BB000070B5022300250446242203709F
:101FF0002946C0F888500C3040F8045CFEF77EFF9C
:10200000204684F8705001F063F963681B6823B1BF
:1020100029462046BDE87040184770BD0378052B5F
:1020200010B504460AD080F88C300523037043684D
:102030001B680BB1042198470023A36010BD00006A
:102040000178052906D190F88C20436802701B683E
:1020500003B118477047000070B590F8703004461F
:1020600013B1002380F8703004F18002204601F0A3
:102070004BFA63689B68B3B994F8803013F060053D
:1020800035D00021204601F03DFD0021204601F021
:102090002DFD63681B6813B106212046984706236F
:1020A00084F8703070BD204698470028E4D0B4F81A
:1020B0008630A26F9A4288BFA36794F98030A56FDB
:1020C000002B4FF0300380F20381002D00F0F280EE
:1020D000092284F8702083F3118800212046D4E976
:1020E0001D23FFF76DFF002383F31188DAE794F8CF
:1020F000812003F07F0343EA022340F2023293423D
:1021000000F0C58021D8B3F5807F48D00DD8012BD1
:102110003FD0022B00F09380002BB2D104F1880253
:1021200062670222A267E367C1E7B3F5817F00F02F
:102130009B80B3F5407FA4D194F88230012BA0D1CD
:10214000B4F8883043F0020332E0B3F5006F4DD0AD
:1021500017D8B3F5A06F31D0A3F5C063012B90D889
:102160006368204694F882205E6894F88310B4F87F
:102170008430B047002884D0436863670368A3674E
:102180001AE0B3F5106F36D040F6024293427FF466
:1021900078AF5C4B63670223A3670023C3E794F81F
:1021A0008230012B7FF46DAFB4F8883023F0020346
:1021B000A4F88830C4E91D55E56778E7B4F88030A5
:1021C000B3F5A06F0ED194F88230204684F88A309F
:1021D00001F0DCF863681B6813B1012120469847C1
:1021E000032323700023C4E91D339CE704F18B0310
:1021F00063670123C3E72378042B10D1302383F3D3
:1022000011882046FFF7BAFE85F311880321636821
:1022100084F88B5021701B680BB12046984794F8C6
:102220008230002BDED084F88B3004232370636867
:102230001B68002BD6D0022120469847D2E794F89D
:10224000843020461D0603F00F010AD501F04EF937
:10225000012804D002287FF414AF2B4B9AE72B4BB4
:1022600098E701F035F9F3E794F88230002B7FF41A
:1022700008AF94F8843013F00F01B3D01A0620464B
:1022800002D501F057FCADE701F048FCAAE794F84D
:102290008230002B7FF4F5AE94F8843013F00F01F8
:1022A000A0D01B06204602D501F02CFC9AE701F0D5
:1022B0001DFC97E7142284F8702083F311882B46C5
:1022C0002A4629462046FFF769FE85F31188E9E68C
:1022D0005DB1152284F8702083F311880021204617
:1022E000D4E91D23FFF75AFEFDE60B2284F8702087
:1022F00083F311882B462A4629462046FFF760FEC5
:10230000E3E700BFA44800089C480008A048000874
:1023100038B590F870300446002B3ED0063BDAB258
:102320000F2A34D80F2B32D8DFE803F037313108C9
:10233000223231313131313131313737856FB0F8B7
:1023400086309D4214D2C3681B8AB5FBF3F203FBAF
:1023500012556DB9302383F311882B462A4629463E
:10236000FFF72EFE85F311880A2384F870300EE003
:10237000142384F87030302383F31188002320461F
:102380001A461946FFF70AFE002383F3118838BD69
:10239000C36F03B198470023E7E70021204601F00F
:1023A000B1FB0021204601F0A1FB63681B6813B15B
:1023B0000621204698470623D7E7000010B590F87D
:1023C00070300446142B29D017D8062B05D001D81D
:1023D0001BB110BD093B022BFBD80021204601F0A8
:1023E00091FB0021204601F081FB63681B6813B15B
:1023F000062120469847062319E0152BE9D10B2327
:1024000080F87030302383F3118800231A46194670
:10241000FFF7D6FD002383F31188DAE7C3689B69D1
:102420005B68002BD5D1C36F03B19847002384F8B4
:102430007030CEE700238268037503691B689968D2
:102440009142FBD25A680360426010605860704746
:1024500000238268037503691B6899689142FBD861
:102460005A680360426010605860704708B50846BB
:10247000302383F311880B7D032B05D0042B0DD063
:102480002BB983F3118808BD8B6900221A604FF0C5
:10249000FF338361FFF7CEFF0023F2E7D1E900327B
:1024A00013605A60F3E70000FFF7C4BF054BD9681B
:1024B00008751868026853601A600122D8600275B6
:1024C000FDF7A0BFC82800200C4B30B5DD684B1CC1
:1024D00087B004460FD02B46094A684600F04EF9F3
:1024E0002046FFF7E3FF009B13B1684600F050F968
:1024F000A86907B030BDFFF7D9FFF9E7C828002069
:102500006D240008044B1A68DB6890689B68984249
:1025100094BF002001207047C8280020084B10B548
:102520001C68D868226853601A600122DC6022753A
:10253000FFF78EFF01462046BDE81040FDF762BF61
:10254000C828002038B5074C012300250649074854
:102550002370656001F0E4FC0223237085F3118889
:1025600038BD00BF302B0020AC480008C828002030
:1025700000F044B9034A516853685B1A9842FBD88B
:10258000704700BF001000E08B600223086108461E
:102590008B8270478368A3F1840243F8142C02698C
:1025A00043F8442C426943F8402C094A43F8242C50
:1025B000C268A3F1200043F8182C022203F80C2C67
:1025C000002203F80B2C034A43F8102C704700BF7D
:1025D0001D040008C828002008B5FFF7DBFFBDE890
:1025E0000840FFF761BF0000024BDB6898610F20D5
:1025F000FFF75CBFC8280020302383F31188FFF762
:10260000F3BF000008B50146302383F3118808208A
:10261000FFF75AFF002383F3118808BD064BDB68E0
:1026200039B1426818605A60136043600420FFF7B4
:102630004BBF4FF0FF307047C82800200368984216
:1026400006D01A680260506018469961FFF72CBFE7
:102650007047000038B504460D462068844200D11A
:1026600038BD036823605C608561FFF71DFFF4E7F8
:10267000036810B59C68A2420CD85C688A600B6045
:102680004C602160596099688A1A9A604FF0FF3354
:10269000836010BD121B1B68ECE700000A2938BFDD
:1026A0000A2170B504460D460A26601901F030FC77
:1026B00001F018FC041BA54203D8751C04462E46E5
:1026C000F3E70A2E04D90120BDE8704001F068BC90
:1026D00070BD0000F8B5144B0D460A2A4FF00A07EA
:1026E000D96103F11001826038BF0A224160196983
:1026F0001446016048601861A81801F0F9FB01F068
:10270000F1FB431B0646A34206D37C1C281927462F
:10271000354601F0FDFBF2E70A2F04D90120BDE8A0
:10272000F84001F03DBCF8BDC8280020F8B50646C9
:102730000D4601F0D7FB0F4A134653F8107F9F4216
:1027400006D12A4601463046BDE8F840FFF7C2BF31
:10275000D169BB68441A2C1928BF2C46A34202D960
:102760002946FFF79BFF224631460348BDE8F84063
:10277000FFF77EBFC8280020D8280020C0E9032327
:10278000002310B45DF8044B4361FFF7CFBF000096
:1027900010B5194C236998420DD08168D0E90032F8
:1027A00013605A609A680A449A60002303604FF0ED
:1027B000FF33A36110BD0268234643F8102F536016
:1027C0000022026022699A4203D1BDE8104001F064
:1027D00099BB936881680B44936001F083FB226985
:1027E000E1699268441AA242E4D91144BDE810405C
:1027F000091AFFF753BF00BFC82800202DE9F04792
:10280000DFF8BC8008F110072C4ED8F8105001F00A
:1028100069FBD8F81C40AA68031B9A423ED81444AE
:102820004FF00009D5E90032C8F81C4013605A6027
:10283000C5F80090D8F81030B34201D101F062FB26
:1028400089F31188D5E9033128469847302383F36B
:1028500011886B69002BD8D001F044FB6A69A0EBAA
:10286000040982464A450DD2022001F099FB00225C
:10287000D8F81030B34208D151462846BDE8F04799
:10288000FFF728BF121A2244F2E712EB0909294682
:10289000384638BF4A46FFF7EBFEB5E7D8F81030A8
:1028A000B34208D01444C8F81C00211AA960BDE83E
:1028B000F047FFF7F3BEBDE8F08700BFD82800203F
:1028C000C828002000207047FEE700007047000085
:1028D0004FF0FF307047000002290CD0032904D0CC
:1028E0000129074818BF00207047032A05D805486A
:1028F00000EBC2007047044870470020704700BFDB
:1029000080490008442200203449000870B59AB07C
:1029100005460846144601A900F0C2F801A8FEF7D2
:10292000E5FA431C0022C6B25B001046C5E900343C
:1029300023700323023404F8013C01ABD1B202340A
:102940008E4201D81AB070BD13F8011B013204F891
:10295000010C04F8021CF1E708B5302383F3118859
:102960000348FFF749FA002383F3118808BD00BF2D
:10297000382B002090F8803003F01F02012A07D185
:1029800090F881200B2A03D10023C0E91D3315E004
:1029900003F06003202B08D1B0F884302BB990F8F5
:1029A0008120212A03D81F2A04D8FFF707BA222A38
:1029B000EBD0FAE7034A426707228267C367012028
:1029C000704700BF3B22002007B5052917D8DFE874
:1029D00001F0191603191920302383F31188104AC6
:1029E00001210190FFF7B0FA019802210D4AFFF78B
:1029F000ABFA0D48FFF7CCF9002383F3118803B03D
:102A00005DF804FB302383F311880748FFF796F93C
:102A1000F2E7302383F311880348FFF7ADF9EBE7C2
:102A2000D4480008F8480008382B002038B50C4D71
:102A30000C4C2A460C4904F10800FFF767FF05F12A
:102A4000CA0204F110000949FFF760FF05F5CA72D8
:102A500004F118000649BDE83840FFF757BF00BF32
:102A60001044002044220020B8480008C448000850
:102A7000CB48000870B5044608460D46FEF736FA06
:102A8000C6B22046013403780BB9184670BD3246F1
:102A90002946FEF717FA0028F3D10120F6E70000D7
:102AA0002DE9F84F05460C46FEF720FA2B49C6B231
:102AB0002846FFF7DFFF2A492846FFF7DBFF08B16A
:102AC0001036F6B2632E0DD8DFF89080DFF89090C4
:102AD000244FDFF898A0DFF898B02E7846B926701A
:102AE000BDE8F88F29462046BDE8F84F01F0FCBD4F
:102AF000252E2ED1072241462846FEF7E3F970B96C
:102B0000DBF800300735073444F8073CBBF80430E5
:102B100024F8033C9BF8063004F8013CDDE708226A
:102B200049462846FEF7CEF998B9A21C0E4B1978F3
:102B300002320909C95D02F8041C13F8011B01F0F7
:102B40000F015345C95D02F8031CF0D11834083554
:102B5000C3E7013504F8016BBFE700BFA0490008D7
:102B6000CB480008B049000800E8F11F0CE8F11F4D
:102B7000A8490008BFF34F8F044B1A695107FCD1D5
:102B8000D3F810215207F8D1704700BF002000523F
:102B900008B50D4B1B78ABB9FFF7ECFF0B4BDA68B0
:102BA000D10704D50A4A5A6002F188325A60D3F834
:102BB0000C21D20706D5064AC3F8042102F1883257
:102BC000C3F8042108BD00BF6E460020002000525B
:102BD0002301674508B5114B1B78F3B9104B1A69EF
:102BE000510703D5DA6842F04002DA60D3F81021C9
:102BF000520705D5D3F80C2142F04002C3F80C214E
:102C0000FFF7B8FF064BDA6842F00102DA60D3F84A
:102C10000C2142F00102C3F80C2108BD6E460020D1
:102C2000002000520F289ABF00F580604004002069
:102C3000704700004FF400307047000010207047CC
:102C40000F2808B50BD8FFF7EDFF00F50033026839
:102C5000013204D104308342F9D1012008BD0020A3
:102C6000FCE700000F2838B505463FD8FFF782FF84
:102C70001F4CFFF78DFF4FF0FF3307286361C4F847
:102C800014311DD82361FFF775FF030243F02403BD
:102C9000E360E36843F08003E36023695A07FCD4F0
:102CA0002846FFF767FFFFF7BDFF4FF4003100F044
:102CB000F5F82846FFF78EFFBDE83840FFF7C0BFA4
:102CC000C4F81031FFF756FFA0F108031B0243F0D0
:102CD0002403C4F80C31D4F80C3143F08003C4F859
:102CE0000C31D4F810315B07FBD4D9E7002038BD94
:102CF000002000522DE9F84F05460C46104645EAE3
:102D00000203DE0602D00020BDE8F88F20F01F008D
:102D1000DFF8BCB0DFF8BCA0FFF73AFF04EB000817
:102D2000444503D10120FFF755FFEDE72022294656
:102D3000204601F0C9FC10B920352034F0E72B46BD
:102D400005F120021F68791CDDD104339A42F9D1C4
:102D500005F178431B481C4EB3F5801F1B4B38BF51
:102D6000184603F1F80332BFD946D1461E46FFF795
:102D700001FF0760A5EB040C336804F11C0143F06C
:102D800002033360231FD9F8007017F00507FAD14A
:102D900053F8042F8B424CF80320F4D1BFF34F8F2C
:102DA000FFF7E8FE4FF0FF3320222146036028465C
:102DB000336823F00203336001F086FC0028BBD0A7
:102DC0003846B0E7142100520C2000521420005263
:102DD000102000521021005210B5084C237828B161
:102DE0001BB9FFF7D5FE0123237010BD002BFCD0CB
:102DF0002070BDE81040FFF7EDBE00BF6E4600201A
:102E00000244074BD2B210B5904200D110BD441C11
:102E100000B253F8200041F8040BE0B2F4E700BF21
:102E2000504000580E4B30B51C6F240405D41C6F65
:102E30001C671C6F44F400441C670A4C024423685E
:102E4000D2B243F480732360074B904200D130BD6F
:102E5000441C51F8045B00B243F82050E0B2F4E7A0
:102E600000440258004802585040005807B501225B
:102E700001A90020FFF7C4FF019803B05DF804FB2F
:102E800013B50446FFF7F2FFA04205D0012201A9C5
:102E900000200194FFF7C6FF02B010BD0144BFF34C
:102EA0004F8F064B884204D3BFF34F8FBFF36F8F12
:102EB0007047C3F85C022030F4E700BF00ED00E08B
:102EC000034B1A681AB9034AD2F8D0241A60704723
:102ED000704600200040025808B5FFF7F1FF024B92
:102EE0001868C0F3806008BD70460020EFF30983C6
:102EF000054968334A6B22F001024A6383F309886B
:102F0000002383F31188704700EF00E0302080F346
:102F1000118862B60D4B0E4AD96821F4E0610904AC
:102F2000090C0A430B49DA60D3F8FC2042F08072A6
:102F3000C3F8FC20084AC2F8B01F116841F0010133
:102F400011602022DA7783F82200704700ED00E05C
:102F50000003FA0555CEACC5001000E0302310B5D3
:102F600083F311880E4B5B6813F4006314D0F1EE09
:102F7000103AEFF309844FF08073683CE361094B2A
:102F8000DB6B236684F30988FFF7BCFA10B1064BAC
:102F9000A36110BD054BFBE783F31188F9E700BF80
:102FA00000ED00E000EF00E02F040008320400080C
:102FB00070B5BFF34F8FBFF36F8F1A4A0021C2F86D
:102FC0005012BFF34F8FBFF36F8F536943F4003339
:102FD0005361BFF34F8FBFF36F8FC2F88410BFF3FD
:102FE0004F8FD2F8803043F6E074C3F3C900C3F3C7
:102FF0004E335B0103EA0406014646EA8175013956
:10300000C2F86052F9D2203B13F1200FF2D1BFF386
:103010004F8F536943F480335361BFF34F8FBFF336
:103020006F8F70BD00ED00E0FEE70000214B2248ED
:10303000224A70B5904237D3214BC11EDA1C121AB6
:1030400022F003028B4238BF00220021FDF756FF19
:103050001C4A0023C2F88430BFF34F8FD2F880306F
:1030600043F6E074C3F3C900C3F34E335B0103EAD4
:103070000406014646EA81750139C2F86C52F9D25C
:10308000203B13F1200FF2D1BFF34F8FBFF36F8FAF
:10309000BFF34F8FBFF36F8F0023C2F85032BFF3DF
:1030A0004F8FBFF36F8F70BD53F8041B40F8041BA4
:1030B000C0E700BFA44B000844480020444800205B
:1030C0004448002000ED00E0074BD3F8D81021EA77
:1030D0000001C3F8D810D3F8002122EA0002C3F897
:1030E0000021D3F8003170470044025870B5D0E990
:1030F000244300224FF0FF359E6804EB4213510138
:10310000D3F80009002805DAD3F8000940F0804020
:10311000C3F80009D3F8000B002805DAD3F8000B38
:1031200040F08040C3F8000B013263189642C3F8A8
:103130000859C3F8085BE0D24FF00113C4F81C38FB
:1031400070BD0000890141F02001016103699B0607
:10315000FCD41220FFF70EBA10B50A4C2046FEF739
:10316000D1FE094BC4F89030084BC4F89430084C99
:103170002046FEF7C7FE074BC4F89030064BC4F854
:10318000943010BD7446002000000840E849000853
:103190001047002000000440F449000870B503788F
:1031A0000546012B5CD1434BD0F89040984258D152
:1031B000414B0E216520D3F8D82042F00062C3F8BD
:1031C000D820D3F8002142F00062C3F80021D3F8E0
:1031D0000021D3F8802042F00062C3F88020D3F8A9
:1031E000802022F00062C3F88020D3F88030FEF700
:1031F000EFFA324BE360324BC4F800380023D5F8C5
:103200009060C4F8003EC02323604FF40413A3630E
:103210003369002BFCDA01230C203361FFF7AAF994
:103220003369DB07FCD41220FFF7A4F93369002BC4
:10323000FCDA00262846A660FFF758FF6B68C4F842
:103240001068DB68C4F81468C4F81C6883BB1D4BA5
:10325000A3614FF0FF336361A36843F00103A360F0
:1032600070BD194B9842C9D1134B4FF08060D3F811
:10327000D82042F00072C3F8D820D3F8002142F0E1
:103280000072C3F80021D3F80021D3F8802042F067
:103290000072C3F88020D3F8802022F00072C3F8B7
:1032A0008020D3F88030FFF70FFF0E214D209EE7DE
:1032B000064BCDE7744600200044025840140040FD
:1032C00003002002003C30C010470020083C30C002
:1032D000F8B5D0F89040054600214FF00066204632
:1032E000FFF730FFD5F8941000234FF001128F68DC
:1032F0004FF0FF30C4F83438C4F81C2804EB4312F4
:1033000001339F42C2F80069C2F8006BC2F8080995
:10331000C2F8080BF2D20B68D5F89020C5F89830A7
:10332000636210231361166916F01006FBD1122098
:10333000FFF720F9D4F8003823F4FE63C4F800380E
:10334000A36943F4402343F01003A3610923C4F8A5
:103350001038C4F814380B4BEB604FF0C043C4F87E
:10336000103B094BC4F8003BC4F81069C4F800399D
:10337000D5F8983003F1100243F48013C5F8982073
:10338000A362F8BDC449000840800010D0F8902026
:1033900090F88A10D2F8003823F4FE6343EA011350
:1033A000C2F80038704700002DE9F84300EB8103B4
:1033B000D0F890500C468046DA680FFA81F948013F
:1033C000166806F00306731E022B05EB41134FF03F
:1033D000000194BFB604384EC3F8101B4FF0010132
:1033E00004F1100398BF06F1805601FA03F39169C6
:1033F00098BF06F5004600293AD0578A04F15801D3
:10340000374349016F50D5F81C180B430021C5F80C
:103410001C382B180127C3F81019A7405369611EE7
:103420009BB3138A928B9B08012A88BF5343D8F819
:103430009820981842EA034301F140022146C8F857
:103440009800284605EB82025360FFF77BFE08EBED
:103450008900C3681B8A43EA845348341E436401CD
:103460002E51D5F81C381F43C5F81C78BDE8F883E9
:1034700005EB4917D7F8001B21F40041C7F8001BE2
:10348000D5F81C1821EA0303C0E704F13F030B4AF7
:103490002846214605EB83035A60FFF753FE05EBF0
:1034A0004910D0F8003923F40043C0F80039D5F8AA
:1034B0001C3823EA0707D7E7008000100004000249
:1034C000D0F894201268C0F89820FFF70FBE0000D3
:1034D0005831D0F8903049015B5813F4004004D0C3
:1034E00013F4001F0CBF0220012070474831D0F8B0
:1034F000903049015B5813F4004004D013F4001FCE
:103500000CBF02200120704700EB8101CB68196AD3
:103510000B6813604B6853607047000000EB810339
:1035200030B5DD68AA691368D36019B9402B84BF30
:10353000402313606B8A1468D0F890201C4402EB7F
:103540004110013C09B2B4FBF3F46343033323F0AD
:10355000030343EAC44343F0C043C0F8103B2B6865
:1035600003F00303012B0ED1D2F8083802EB41100F
:1035700013F4807FD0F8003B14BF43F0805343F036
:103580000053C0F8003B02EB4112D2F8003B43F07D
:103590000443C2F8003B30BD2DE9F041D0F8906003
:1035A00005460C4606EB4113D3F8087B3A07C3F8EF
:1035B000087B08D5D6F814381B0704D500EB810327
:1035C000DB685B689847FA071FD5D6F81438DB0725
:1035D0001BD505EB8403D968CCB98B69488A5A6836
:1035E000B2FBF0F600FB16228AB91868DA6890423E
:1035F0000DD2121AC3E90024302383F31188214627
:103600002846FFF78BFF84F31188BDE8F081012382
:1036100003FA04F26B8923EA02036B81CB68002B67
:10362000F3D021462846BDE8F041184700EB81035E
:103630004A0170B5DD68D0F890306C692668E660A4
:1036400056BB1A444FF40020C2F810092A6802F051
:103650000302012A0AB20ED1D3F8080803EB421480
:1036600010F4807FD4F8000914BF40F0805040F07F
:103670000050C4F8000903EB4212D2F8000940F0F0
:103680000440C2F800090122D3F8340802FA01F11B
:103690000143C3F8341870BD19B9402E84BF4020CF
:1036A000206020681A442E8A8419013CB4FBF6F489
:1036B00040EAC44040F00050C6E700002DE9F8435E
:1036C000D0F8906005460C464F0106EB4113D3F845
:1036D000088918F0010FC3F808891CD0D6F81038F3
:1036E000DB0718D500EB8103D3F80CC0DCF81430ED
:1036F000D3F800E0DA68964530D2A2EB0E024FF024
:1037000000091A60C3F80490302383F31188FFF78F
:103710008DFF89F3118818F0800F1DD0D6F834384A
:103720000126A640334217D005EB84030134D5F8B7
:103730009050D3F80CC0E4B22F44DCF8142005EB11
:103740000434D2F800E05168714514D3D5F8343808
:1037500023EA0606C5F83468BDE8F883012303FAB6
:1037600001F2038923EA02030381DCF80830002B0D
:10377000D1D09847CFE7AEEB0103BCF810008342ED
:1037800028BF0346D7F8180980B2B3EB800FE3D8FF
:103790009068A0F1040959F8048FC4F80080A0EBE8
:1037A00009089844B8F1040FF5D818440B44906008
:1037B0005360C8E72DE9F84FD0F8905004466E6981
:1037C000AB691E4016F480586E6103D0BDE8F84F17
:1037D000FEF708BC002E12DAD5F8003E9B0705D094
:1037E000D5F8003E23F00303C5F8003ED5F80438B1
:1037F000204623F00103C5F80438FEF721FC370505
:1038000005D52046FFF772FC2046FEF707FCB00402
:103810000CD5D5F8083813F0060FEB6823F4705375
:103820000CBF43F4105343F4A053EB6031071BD596
:103830006368DB681BB9AB6923F00803AB612378CD
:10384000052B0CD1D5F8003E9A0705D0D5F8003EDF
:1038500023F00303C5F8003E2046FEF7F1FB636842
:10386000DB680BB120469847F30200F1BA80B7023B
:1038700026D5D4F8909000274FF0010A09EB4712A3
:10388000D2F8003B03F44023B3F5802F11D1D2F8D6
:10389000003B002B0DDA62890AFA07F322EA0303E0
:1038A000638104EB8703DB68DB6813B1394620468C
:1038B00098470137D4F89430FFB29B689F42DDD916
:1038C000F00619D5D4F89000026AC2F30A1702F084
:1038D0000F0302F4F012B2F5802F00F0CA80B2F5A7
:1038E000402F09D104EB8303002200F58050DB68F0
:1038F0001B6A974240F0B0803003D5F8185835D590
:10390000E90303D500212046FFF746FEAA0303D5AD
:1039100001212046FFF740FE6B0303D5022120461C
:10392000FFF73AFE2F0303D503212046FFF734FEAD
:10393000E80203D504212046FFF72EFEA90203D595
:1039400005212046FFF728FE6A0203D506212046FE
:10395000FFF722FE2B0203D507212046FFF71CFEAE
:10396000EF0103D508212046FFF716FE700340F152
:10397000A780E90703D500212046FFF79FFEAA078D
:1039800003D501212046FFF799FE6B0703D50221DD
:103990002046FFF793FE2F0703D503212046FFF7AC
:1039A0008DFEEE0603D504212046FFF787FEA8060C
:1039B00003D505212046FFF781FE690603D50621C0
:1039C0002046FFF77BFE2A0603D507212046FFF796
:1039D00075FEEB0574D520460821BDE8F84FFFF7CA
:1039E0006DBED4F890904FF0000B4FF0010AD4F860
:1039F00094305FFA8BF79B689F423FF638AF09EB34
:103A00004713D3F8002902F44022B2F5802F20D1C9
:103A1000D3F80029002A1CDAD3F8002942F090429A
:103A2000C3F80029D3F80029002AFBDB3946D4F873
:103A30009000FFF787FB22890AFA07F322EA0303C3
:103A4000238104EB8703DB689B6813B1394620466A
:103A500098470BF1010BCAE7910701D1D0F800801C
:103A6000072A02F101029CBF03F8018B4FEA1828D4
:103A70003FE704EB830300F58050DA68D2F818C002
:103A8000DCF80820DCE9001CA1EB0C0C00218F42C3
:103A900008D1DB689B699A683A449A605A683A444C
:103AA0005A6029E711F0030F01D1D0F800808C454E
:103AB00001F1010184BF02F8018B4FEA1828E6E703
:103AC000BDE8F88F08B50348FFF774FEBDE808406D
:103AD000FFF744BA7446002008B50348FFF76AFEB2
:103AE000BDE80840FFF73ABA10470020D0F8903000
:103AF00003EB4111D1F8003B43F40013C1F8003B44
:103B000070470000D0F8903003EB4111D1F8003934
:103B100043F40013C1F8003970470000D0F890302A
:103B200003EB4111D1F8003B23F40013C1F8003B33
:103B300070470000D0F8903003EB4111D1F8003904
:103B400023F40013C1F800397047000030B5043386
:103B5000039C0172002104FB0325C160C0E90653E8
:103B6000049B0363059BC0E90000C0E90422C0E98F
:103B70000842C0E90A11436330BD00000022416AD7
:103B8000C260C0E90411C0E90A226FF00101FEF72A
:103B900061BD0000D0E90432934201D1C2680AB984
:103BA000181D704700207047036919600021C26822
:103BB0000132C260C269134482699342036124BF27
:103BC000436A0361FEF73ABD38B504460D46E36823
:103BD0003BB162690020131D1268A3621344E362C3
:103BE00007E0237A33B929462046FEF717FD00285F
:103BF000EDDA38BD6FF00100FBE70000C368C26971
:103C0000013BC3604369134482699342436124BF0B
:103C1000436A436100238362036B03B11847704713
:103C200070B53023044683F31188866A3EB9FFF7E6
:103C3000CBFF054618B186F31188284670BDA36AEC
:103C4000E26A13F8015B9342A36202D32046FFF7B6
:103C5000D5FF002383F31188EFE700002DE9F84F2B
:103C600004460E46174698464FF0300989F31188EE
:103C70000025AA46D4F828B0BBF1000F09D141466F
:103C80002046FFF7A1FF20B18BF311882846BDE83D
:103C9000F88FD4E90A12A7EB050B521A934528BFF7
:103CA0009346BBF1400F1BD9334601F1400251F856
:103CB000040B914243F8040BF9D1A36A4036403516
:103CC0004033A362D4E90A239A4202D32046FFF785
:103CD00095FF8AF31188BD42D8D289F31188C9E7CC
:103CE00030465A46FDF7E4F8A36A5E445D445B44FF
:103CF000A362E7E710B5029C0433017203FB0421C1
:103D0000C460C0E906130023C0E90A33039B0363C0
:103D1000049BC0E90000C0E90422C0E908424363F3
:103D200010BD0000026A6FF00101C260426AC0E982
:103D300004220022C0E90A22FEF78CBCD0E9042349
:103D40009A4201D1C26822B9184650F8043B0B6070
:103D5000704700231846FAE7C3680021C26901339F
:103D6000C3604369134482699342436124BF436A39
:103D70004361FEF763BC000038B504460D46E368B6
:103D80003BB1236900201A1DA262E2691344E36279
:103D900007E0237A33B929462046FEF73FFC002886
:103DA000EDDA38BD6FF00100FBE700000369196030
:103DB000C268013AC260C2691344826993420361D6
:103DC00024BF436A036100238362036B03B1184776
:103DD0007047000070B530230D460446114683F34A
:103DE0001188866A2EB9FFF7C7FF10B186F31188D4
:103DF00070BDA36A1D70A36AE26A01339342A36295
:103E000004D3E16920460439FFF7D0FF002080F396
:103E10001188EDE72DE9F84F04460D469046994686
:103E20004FF0300A8AF311880026B346A76A4FB9CB
:103E300049462046FFF7A0FF20B187F3118830469E
:103E4000BDE8F88FD4E90A073A1AA8EB06079742AB
:103E500028BF1746402F1BD905F1400355F8042B06
:103E60009D4240F8042BF9D1A36A40364033A36247
:103E7000D4E90A239A4204D3E16920460439FFF7C2
:103E800095FF8BF311884645D9D28AF31188CDE787
:103E900029463A46FDF70CF8A36A3D443E443B44AC
:103EA000A362E5E7D0E904239A4217D1C3689BB126
:103EB000836A8BB1043B9B1A0ED01360C368013B2D
:103EC000C360C3691A4483699A42026124BF436A8A
:103ED0000361002383620123184670470023FBE738
:103EE00000F024B9014B586A704700BF000C004035
:103EF000034B002258631A610222DA60704700BF48
:103F0000000C0040014B0022DA607047000C0040BA
:103F1000014B5863704700BF000C0040FEE70000F3
:103F200070B51B4B0025044686B058600E4685626E
:103F30000163FEF7EBFF04F11003A560E562C4E93D
:103F400004334FF0FF33C4E90044C4E90635FFF7FA
:103F5000C9FF2B46024604F134012046C4E9082378
:103F600080230C4A2565FEF70FFB01230A4AE06017
:103F700000920375684672680192B268CDE9022327
:103F8000064BCDE90435FEF727FB06B070BD00BF38
:103F9000302B0020004A0008054A00081D3F000899
:103FA000024AD36A1843D062704700BFC828002075
:103FB0004B6843608B688360CB68C3600B69436167
:103FC0004B6903628B6943620B68036070470000B2
:103FD00008B53C4B40F2FF713B48D3F888200A43B8
:103FE000C3F88820D3F8882022F4FF6222F0070269
:103FF000C3F88820D3F88820D3F8E0200A43C3F818
:10400000E020D3F808210A43C3F808212F4AD3F847
:1040100008311146FFF7CCFF00F5806002F11C016A
:10402000FFF7C6FF00F5806002F13801FFF7C0FF1F
:1040300000F5806002F15401FFF7BAFF00F58060DF
:1040400002F17001FFF7B4FF00F5806002F18C010E
:10405000FFF7AEFF00F5806002F1A801FFF7A8FFAF
:1040600000F5806002F1C401FFF7A2FF00F5806057
:1040700002F1E001FFF79CFF00F5806002F1FC0116
:10408000FFF796FF02F58C7100F58060FFF790FF57
:1040900000F018F90E4BD3F8902242F00102C3F859
:1040A0009022D3F8942242F00102C3F89422052210
:1040B000C3F898204FF06052C3F89C20054AC3F81B
:1040C000A02008BD00440258000002580C4A000815
:1040D00000ED00E01F00080308B500F0D5FAFEF778
:1040E00031FA0F4BD3F8DC2042F04002C3F8DC2059
:1040F000D3F8042122F04002C3F80421D3F804319C
:10410000084B1A6842F008021A601A6842F004026A
:104110001A60FEF7D5FEBDE80840FEF787BC00BF79
:10412000004402580018024870470000114BD3F8B1
:10413000E82042F00802C3F8E820D3F8102142F04A
:104140000802C3F810210C4AD3F81031D36B43F0A6
:104150000803D363C722094B9A624FF0FF32DA6239
:1041600000229A615A63DA605A6001225A611A6029
:10417000704700BF004402580010005C000C004073
:10418000094A08B51169D3680B40D9B29B076FEA99
:104190000101116107D5302383F31188FEF7E8F997
:1041A000002383F3118808BD000C0040064BD3F8B0
:1041B000DC200243C3F8DC20D3F804211043C3F809
:1041C0000401D3F8043170470044025808B53C4B51
:1041D0004FF0FF31D3F8802062F00042C3F8802016
:1041E000D3F8802002F00042C3F88020D3F880206A
:1041F000D3F88420C3F88410D3F884200022C3F8B5
:104200008420D3F88400D86F40F0FF4040F4FF00D2
:1042100040F4DF4040F07F00D867D86F20F0FF40C7
:1042200020F4FF0020F4DF4020F07F00D867D86F33
:10423000D3F888006FEA40506FEA5050C3F8880006
:10424000D3F88800C0F30A00C3F88800D3F88800C8
:10425000D3F89000C3F89010D3F89000C3F89020E2
:10426000D3F89000D3F89400C3F89410D3F89400D6
:10427000C3F89420D3F89400D3F89800C3F89810AA
:10428000D3F89800C3F89820D3F89800D3F88C009E
:10429000C3F88C10D3F88C00C3F88C20D3F88C00B2
:1042A000D3F89C00C3F89C10D3F89C10C3F89C2052
:1042B000D3F89C30FDF79EF8BDE8084000F0B8B98F
:1042C0000044025808B50122534BC3F80821534B50
:1042D000D3F8F42042F00202C3F8F420D3F81C21F2
:1042E00042F00202C3F81C210222D3F81C314C4BCD
:1042F000DA605A689104FCD54A4A1A6001229A6031
:10430000494ADA6000221A614FF440429A61444BF4
:104310009A699204FCD51A6842F480721A603F4B85
:104320001A6F12F4407F04D04FF480321A670022D3
:104330001A671A6842F001021A60384B1A6850076F
:10434000FCD500221A611A6912F03802FBD1012152
:1043500019604FF0804159605A67344ADA62344A32
:104360001A611A6842F480321A602C4B1A68910361
:10437000FCD51A6842F480521A601A689204FCD57F
:104380002C4A2D499A6200225A63196301F57C0177
:10439000DA6301F5E77199635A64284A1A64284A76
:1043A000DA621A6842F0A8521A601C4B1A6802F0CE
:1043B0002852B2F1285FF9D148229A614FF48862FD
:1043C000DA6140221A621F4ADA641F4A1A651F4ADC
:1043D0005A651F4A9A6532231E4A1360136803F018
:1043E0000F03022BFAD10D4A136943F00303136143
:1043F000136903F03803182BFAD14FF00050FFF780
:10440000D5FE4FF08040FFF7D1FE4FF00040BDE8F1
:104410000840FFF7CBBE00BF0080005100440258A7
:104420000048025800C000F0020000010000FF0137
:10443000008890083220600063020901470E0508D9
:10444000DD0BBF0120000020000001100910E0007A
:1044500000010110002000524FF0B04208B5D2F820
:10446000883003F00103C2F8883023B1044A13688E
:104470000BB150689847BDE80840FEF76FBD00BF1C
:10448000C44700204FF0B04208B5D2F8883003F09E
:104490000203C2F8883023B1044A93680BB1D06894
:1044A0009847BDE80840FEF759BD00BFC44700204B
:1044B0004FF0B04208B5D2F8883003F00403C2F8D8
:1044C000883023B1044A13690BB150699847BDE89D
:1044D0000840FEF743BD00BFC44700204FF0B04284
:1044E00008B5D2F8883003F00803C2F8883023B149
:1044F000044A93690BB1D0699847BDE80840FEF7BC
:104500002DBD00BFC44700204FF0B04208B5D2F81F
:10451000883003F01003C2F8883023B1044A136ACC
:104520000BB1506A9847BDE80840FEF717BD00BFC1
:10453000C44700204FF0B04310B5D3F8884004F4CE
:104540007872C3F88820A30604D5124A936A0BB187
:10455000D06A9847600604D50E4A136B0BB1506BB6
:104560009847210604D50B4A936B0BB1D06B984743
:10457000E20504D5074A136C0BB1506C9847A305AC
:1045800004D5044A936C0BB1D06C9847BDE8104039
:10459000FEF7E4BCC44700204FF0B04310B5D3F899
:1045A000884004F47C42C3F88820620504D5164A8A
:1045B000136D0BB1506D9847230504D5124A936DC6
:1045C0000BB1D06D9847E00404D50F4A136E0BB1C0
:1045D000506E9847A10404D50B4A936E0BB1D06E70
:1045E0009847620404D5084A136F0BB1506F98477F
:1045F000230404D5044A936F0BB1D06F9847BDE8EC
:104600001040FEF7ABBC00BFC447002008B503480C
:10461000FDF758F8BDE80840FEF7A0BC5C24002078
:1046200008B5FFF7ADFDBDE80840FEF797BC0000F8
:10463000062108B50846FDF7CBF806210720FDF74F
:10464000C7F806210820FDF7C3F806210920FDF769
:10465000BFF806210A20FDF7BBF806211720FDF759
:10466000B7F806212820FDF7B3F809217A20FDF7D5
:10467000AFF807213220FDF7ABF80C212520BDE86B
:104680000840FDF7A5B8000008B5FFF79FFD00F052
:104690000DF8FDF75BFAFDF733FCFDF705FBFFF7BF
:1046A00043FDBDE80840FFF71BBC00000023054A9E
:1046B00019460133102BC2E9001102F10802F8D1AA
:1046C000704700BFC447002010B501390244904232
:1046D00001D1002005E0037811F8014FA34201D079
:1046E000181B10BD0130F2E7034611F8012B03F847
:1046F000012B002AF9D1704753544D333248373FCC
:104700003F3F0053544D3332483733782F37327898
:104710000053544D3332483734332F3735332F3726
:104720003530000001105A000310590001205800D4
:10473000032056001000024008000240000802401A
:1047400000000B002800024008000240040802405C
:1047500006010C0040000240080002400808024028
:1047600010020D0058000240080002400C080240F0
:1047700016030E00700002400C00024010080240B8
:1047800000040F00880002400C00024014080240A0
:1047900006051000A00002400C000240180802406C
:1047A00010061100B80002400C0002401C08024034
:1047B00016072F001004024008040240200802409F
:1047C000000838002804024008040240240802407F
:1047D000060939004004024008040240280802404B
:1047E000100A3A0058040240080402402C08024013
:1047F000160B3B00700402400C04024030080240DB
:10480000000C3C00880402400C04024034080240C2
:10481000060D4400A00402400C0402403808024087
:10482000100E4500B80402400C0402403C0802404F
:10483000160F460000960000000000000000000077
:104840000000000000000000000000000000000068
:104850000D1B0008F91A0008351B0008211B000871
:104860002D1B0008191B0008051B0008F11A000881
:10487000411B000800000000251C0008111C000856
:104880004D1C0008391C0008451C0008311C00089C
:104890001D1C0008091C0008591C0008000000002D
:1048A000010000000000000063300000A84800087C
:1048B00020290020302B002044726F6E6573596FE1
:1048C000756E670041505A65726F00255345524915
:1048D000414C25000200000000000000451E0008B9
:1048E000B51E000840004000E0430020F0430020D7
:1048F00002000000000000000300000000000000B3
:10490000FD1E000800000000100000000044002010
:1049100000000000010000000000000074460020BC
:1049200001010200C9290008D928000875290008DA
:1049300059290008430000003C49000809024300CF
:10494000020100C032090400000102020100052436
:1049500000100105240100010424020205240600C0
:1049600001070582030800FF09040100020A000094
:104970000007050102400000070581024000000019
:1049800012000000884900081201100102000040D6
:1049900083044057000201020301000004030904DC
:1049A00025424F415244250041507A34303067004F
:1049B0003031323334353637383941424344454655
:1049C000000000000000000059200008112300082A
:1049D000BD23000840004000AC470020AC47002049
:1049E00001000000BC4700208000000040010000E2
:1049F0000800000000010000001000000800000096
:104A00006D61696E0069646C650000000001A82A90
:104A100000800000AAAAAAAA00011424FFFF000037
:104A20000000000070A70A00105000000000000005
:104A3000AAAAAAAA10500000FFFF00000000000070
:104A4000000000000000000000000000AAAAAAAABE
:104A500000000000FFFF0000000000000000000058
:104A60000000500000000000AAAAAAAA00005000FE
:104A7000FFFF000000000000000000005001104196
:104A80001C000000AAAAAAAA00001041FFFF000013
:104A90000000000000000000000000000000000016
:104AA000AAAAAAAA00000000FFFF00000000000060
:104AB000000000000000000000000000AAAAAAAA4E
:104AC00000000000FFFF00000000000000000000E8
:104AD0000000000000000000AAAAAAAA000000002E
:104AE000FFFF0000000000000000000000000000C8
:104AF00000000000AAAAAAAA00000000FFFF000010
:104B000000000000000000000000000000000000A5
:104B1000AAAAAAAA00000000FFFF000000000000EF
:104B2000000000000000000000000000AAAAAAAADD
:104B300000000000FFFF0000000000000000000077
:104B4000030100000000000000001A000000000047
:104B5000FF000000382B00205C2400200000000033
:104B6000F8460008830400000347000850040000D2
:104B700011470008009600000000080096000000A1
:104B800000080000040000009C490008000000002C
:104B90000000000000000000000000000000000015
:044BA0000000000011
:00000001FF
